{
  "txid": "b75fbce207c339e9413387db74ec156271ffa08b9cda01b7a0943819e7559d43",
  "hash": "b75fbce207c339e9413387db74ec156271ffa08b9cda01b7a0943819e7559d43",
  "size": 255,
  "vsize": 255,
  "version": 1,
  "locktime": 0,
  "vin": [
    {
      "txid": "a109a924fb7a90f305881fb9c8c5bd024673456af12e3651c27668a6b79707ad",
      "vout": 2,
      "scriptSig": {
        "asm": "30450221009901aacea62ad49834b066b38501b42091e3316aa4bfe02da7d04e484f95b32302202f54120e769901c86d392cab1d3c5955d1faf73bebeb57b3e21edb37b418882701",
        "hex": "4830450221009901aacea62ad49834b066b38501b42091e3316aa4bfe02da7d04e484f95b32302202f54120e769901c86d392cab1d3c5955d1faf73bebeb57b3e21edb37b418882701"
      },
      "sequence": 4294967295
    }
  ],
  "vout": [
    {
      "value": 0.00000000,
      "n": 0,
      "scriptPubKey": {
        "asm": "",
        "hex": "",
        "type": "nonstandard"
      }
    },
    {
      "value": 16741.20000000,
      "n": 1,
      "scriptPubKey": {
        "asm": "0306bb5eac4f028255c91fa78da9c6d0df5425e75d27b688b3e944a540f5dbe2d2 OP_CHECKSIG",
        "hex": "210306bb5eac4f028255c91fa78da9c6d0df5425e75d27b688b3e944a540f5dbe2d2ac",
        "reqSigs": 1,
        "type": "pubkey",
        "addresses": [
          "oMRtieu2VEDBFYKu9XNtXPxHEKWbmssD5a"
        ]
      }
    },
    {
      "value": 16647.00988130,
      "n": 2,
      "scriptPubKey": {
        "asm": "0306bb5eac4f028255c91fa78da9c6d0df5425e75d27b688b3e944a540f5dbe2d2 OP_CHECKSIG",
        "hex": "210306bb5eac4f028255c91fa78da9c6d0df5425e75d27b688b3e944a540f5dbe2d2ac",
        "reqSigs": 1,
        "type": "pubkey",
        "addresses": [
          "oMRtieu2VEDBFYKu9XNtXPxHEKWbmssD5a"
        ]
      }
    },
    {
      "value": 94.20000000,
      "n": 3,
      "scriptPubKey": {
        "asm": "OP_DUP OP_HASH160 ff73567e44b989b5513ed0ac196d29691c43e084 OP_EQUALVERIFY OP_CHECKSIG",
        "hex": "76a914ff73567e44b989b5513ed0ac196d29691c43e08488ac",
        "reqSigs": 1,
        "type": "pubkeyhash",
        "addresses": [
          "ogA4iDjm5H2HjWUmeZykhX4HhtgMAEixGb"
        ]
      }
    }
  ],
  "blockhash": "8fc724cddcd8a5d6f88bfcf2242eafc96a36d22707183f21d229fac18191adb7",
  "confirmations": 2458,
  "time": 1539323011,
  "blocktime": 1539323011,
  "hex": "0100000001ad0797b7a66876c251362ef16a45734602bdc5c8b91f8805f3907afb24a909a102000000494830450221009901aacea62ad49834b066b38501b42091e3316aa4bfe02da7d04e484f95b32302202f54120e769901c86d392cab1d3c5955d1faf73bebeb57b3e21edb37b418882701ffffffff0400000000000000000000f253c98501000023210306bb5eac4f028255c91fa78da9c6d0df5425e75d27b688b3e944a540f5dbe2d2ace23ae9978301000023210306bb5eac4f028255c91fa78da9c6d0df5425e75d27b688b3e944a540f5dbe2d2ac00cb7931020000001976a914ff73567e44b989b5513ed0ac196d29691c43e08488ac00000000"
}
