{
  "txid": "e3341a46d00b3b83628a8ec36d070ab76209641630c08a4c4604c1747c474a2b",
  "hash": "e3341a46d00b3b83628a8ec36d070ab76209641630c08a4c4604c1747c474a2b",
  "size": 191,
  "vsize": 191,
  "version": 1,
  "locktime": 0,
  "vin": [
    {
      "txid": "1dacb0e43e8a5ea91c9fe8099fc1777bed787b622e53648478002e79c1917c36",
      "vout": 0,
      "scriptSig": {
        "asm": "3044022023026160d7f28027b7b10f5ca799247aa915a3db7d7e0ae689578506c6b7e16f0220651aeefa5b40471380099b997a0985810bbc400e435894a04cb723e809d6d68601 0286ad513d3ce85e153bc0ab3bd93b833370bc4778c404826ac8a6226ff0ac54d4",
        "hex": "473044022023026160d7f28027b7b10f5ca799247aa915a3db7d7e0ae689578506c6b7e16f0220651aeefa5b40471380099b997a0985810bbc400e435894a04cb723e809d6d68601210286ad513d3ce85e153bc0ab3bd93b833370bc4778c404826ac8a6226ff0ac54d4"
      },
      "sequence": 4294967295
    }
  ],
  "vout": [
    {
      "value": 1.90000000,
      "n": 0,
      "scriptPubKey": {
        "asm": "OP_RETURN 416c7069706f723a205472617073206172652067617921",
        "hex": "6a17416c7069706f723a205472617073206172652067617921",
        "type": "nulldata"
      }
    }
  ],
  "blockhash": "3cb00e412e80f75bff490f32915fc3162ea1340271faef55a5eed43efb72f721",
  "confirmations": 283,
  "time": 1541705425,
  "blocktime": 1541705425,
  "hex": "0100000001367c91c1792e00788464532e627b78ed7b77c19f09e89f1ca95e8a3ee4b0ac1d000000006a473044022023026160d7f28027b7b10f5ca799247aa915a3db7d7e0ae689578506c6b7e16f0220651aeefa5b40471380099b997a0985810bbc400e435894a04cb723e809d6d68601210286ad513d3ce85e153bc0ab3bd93b833370bc4778c404826ac8a6226ff0ac54d4ffffffff01802b530b00000000196a17416c7069706f723a20547261707320617265206761792100000000"
}
