{
    "txid": "cddf5562852d9876c148aeb5237f800905052e5ae773fe3108248425863f191d",
    "hash": "cddf5562852d9876c148aeb5237f800905052e5ae773fe3108248425863f191d",
    "size": 225,
    "vsize": 225,
    "version": 1,
    "locktime": 0,
    "vin": [
        {
            "txid": "ce42b566a9d47984238d414b489b9befb37f642d801e84da8024deb76607f28e",
            "vout": 1,
            "scriptSig": {
                "asm": "304402202d8b6db6eae328ea085414800d4e82ee400de9ec09ca913728c934d1903693a5022032697a1ddebd0b76bd2b5eaeaf282d6c044c17a68c6e9412646c6527a8c35f4701 021315432c9ba56e28d1ca859d5ba9704d32ca600d105a2bf3e21e9fac9a49468e",
                "hex": "47304402202d8b6db6eae328ea085414800d4e82ee400de9ec09ca913728c934d1903693a5022032697a1ddebd0b76bd2b5eaeaf282d6c044c17a68c6e9412646c6527a8c35f470121021315432c9ba56e28d1ca859d5ba9704d32ca600d105a2bf3e21e9fac9a49468e"
            },
            "sequence": 4294967295
        }
    ],
    "vout": [
        {
            "value": 0.00052000,
            "n": 0,
            "scriptPubKey": {
                "asm": "OP_DUP OP_HASH160 f0aa4b1cb5140e55154068127f59917dfe695f36 OP_EQUALVERIFY OP_CHECKSIG",
                "hex": "76a914f0aa4b1cb5140e55154068127f59917dfe695f3688ac",
                "reqSigs": 1,
                "type": "pubkeyhash",
                "addresses": [
                    "oeotQimis9AwftfjrQMfj29bcwnmGUDnEr"
                ]
            }
        },
        {
            "value": 9.99945162,
            "n": 1,
            "scriptPubKey": {
                "asm": "OP_DUP OP_HASH160 a90b14d168d85fdf9bababf732e950c0dc782db8 OP_EQUALVERIFY OP_CHECKSIG",
                "hex": "76a914a90b14d168d85fdf9bababf732e950c0dc782db888ac",
                "reqSigs": 1,
                "type": "pubkeyhash",
                "addresses": [
                    "oYHBhrLBc1JiLZqPqNBTXY8SLt71yCWxPP"
                ]
            }
        }
    ],
    "blockhash": "218bb1f33f2bac8b88ef8728bb5a0a221392a1c3e15ce5b4f8f6c4685d13d8bd",
    "confirmations": 3,
    "time": 1546824966,
    "blocktime": 1546824966,
    "hex": "01000000018ef20766b7de2480da841e802d647fb3ef9b9b484b418d238479d4a966b542ce010000006a47304402202d8b6db6eae328ea085414800d4e82ee400de9ec09ca913728c934d1903693a5022032697a1ddebd0b76bd2b5eaeaf282d6c044c17a68c6e9412646c6527a8c35f470121021315432c9ba56e28d1ca859d5ba9704d32ca600d105a2bf3e21e9fac9a49468effffffff0220cb0000000000001976a914f0aa4b1cb5140e55154068127f59917dfe695f3688accaf3993b000000001976a914a90b14d168d85fdf9bababf732e950c0dc782db888ac00000000"
}
